:107E0000DD2724B6D4BF21FA26F08827C4D00C94ED
:107E10000000C0EC60E070E082E0888328E1298304
:107E200006E00A8390E19C838DE0B5D0259A2D98D9
:107E3000019601970196E1F71D9AA8950A95C1F759
:107E4000A3D0813491F4A0D0082FAED081E20438C1
:107E500051F08FEC023839F086E0013821F083E0F0
:107E6000003809F088278BD080C0823494E119F063
:107E7000853419F495E094D078C0853539F484D0F0
:107E8000682F82D0782F660F771F6EC0863511F568
:107E90007BD0E1E0FF2792E08C3A41F475D0803E40
:107EA00051F77ED099E097BFE895DDCF883539F05E
:107EB000EE27803521F093E073D08827D4CF64D0AB
:107EC000803019F08830C1F7E2606AD099E097BF3E
:107ED0008491C9CF8436E1F44BD0A0E0B2E054D015
:107EE0008D933A17E1F7A0E0B2E05ED016F06AD0C9
:107EF0003CC0FB01F999FECFF2BDE1BD8D9180BD83
:107F000084E08FBBF99A31963A95A1F7BF012DC055
:107F10008437A1F42DD048D0FB015EF4F999FECF4F
:107F2000F2BDE1BDF89A80B52AD031963A95C1F7F5
:107F3000EDCF859124D03A95E1F7E8CF853769F404
:107F400033D0E0E005D0E2E003D0E4E001D00DC0A2
:107F5000FF2781E287BF849112C08637E1E0B1F349
:107F6000813511F488E017D01FD080E108D068CFA8
:107F70000BD00AD0382F08D080FB089584E1988177
:107F800095FFFDCF8E830895888187FFFDCF84FF05
:107F9000A8958E81089520936000809360000895D5
:107FA000F3DF9A95E9F7082EEFDF803239F388E0A6
:047FB000F2DFFFCF2E
:107FC00030E8DC01F999FECFFB0193E011D087B7CF
:107FD00080FDFDCF0D901D9091E097BFE895329602
:107FE0003250C1F7CF01FB01BC0195E001D091E116
:107FF00087B780FDFDCF97BFE89511240895CF0680
:00000001FF
 
