:107E0000DD2724B6D4BF21FA26F08827C8D00C94E9
:107E10000000C0EC60E070E028E1298306E00A83FE
:107E200093E09C838DE0BBD0259A2D98B7D0019626
:107E3000E9F71D9AA8950A95C9F7AAD0813491F45B
:107E4000A7D0082FB5D082E3043851F08FEC023868
:107E500039F086E0013821F083E0003809F0882706
:107E600092D087C0823494E119F0853419F495E0FA
:107E70009BD07FC0853539F48BD0682F89D0782F7F
:107E8000660F771F75C0863511F582D0E1E0FF27B8
:107E900092E08C3A41F47CD0803E51F785D099E055
:107EA00097BFE895DDCF883539F0EE27803521F092
:107EB00093E07AD08827D4CF6BD0803019F0883007
:107EC000C1F7E26071D099E097BF8491C9CF843641
:107ED00019F552D0FB011EF0703708F486D0A0E0EF
:107EE000B3E056D08D933A17E1F7A0E0B3E060D04D
:107EF0002EF0703708F079D067D03BC0F999FECFEB
:107F0000F2BDE1BD8D9180BD84E08FBBF99A3196C1
:107F10003A95A1F7BF012DC08437A1F42DD048D0E8
:107F2000FB015EF4F999FECFF2BDE1BDF89A80B590
:107F30002AD031963A95C1F7EDCF859124D03A9564
:107F4000E1F7E8CF853769F433D0E0E005D0E2E02F
:107F500003D0E4E001D00DC0FF2781E287BF849108
:107F600012C08637E1E0B1F3813511F488E017D013
:107F70001FD080E108D061CF0BD00AD0382F08D0B5
:107F800080FB089584E1988195FFFDCF8E8308954D
:107F9000888187FFFDCF84FFA8958E810895209367
:107FA0006000809360000895F3DF9A95E9F7082E4A
:0C7FB000EFDF803239F388E0F2DFFFCF12
:107FC00030E8DC01FB0111D00D901D9091E00ED046
:107FD00032963250C9F7CF01FB01BC0195E006D0C3
:107FE00091E104D0CD011124089593E087B780FD7D
:087FF000FDCF97BFE89508954D
:027FFE00CF06AC
:00000001FF
